:020000040000FA
:06000000010A64007F0B01
:1002FE000E0C0600060406020602060271007200CB
:10030E00030C2B00080C2A00770C2900E9028D0B38
:10031E00EA028D0BEB028D0B000C2606010C2E0053
:10032E00000C4606010C2F00000C6606010C300076
:10033E00CE004307AB0B010C3C007D001C02F1010B
:10034E000306B2021D02F201CF004307B70B010CE8
:10035E003C007D001C02F1010306B2021D02F201F7
:10036E00D0004307C30B010C3C007D001C02F101C1
:10037E000306B2021D02F2016C006D0012023D0076
:10038E0011023C000D023F000C023E001F02800FC6
:10039E0029001D02800F89004307D70B1C029E0007
:1003AE000306850B0605020C2B00040C2A00BA0C62
:1003BE002900E902E00BEA02E00BEB02E00B000081
:1003CE000604020C2B00040C2A00BA0C2900E902C8
:1003DE00EE0BEA02EE0BEB02EE0B0000010C3C0002
:1003EE007D001C02EC010306AD021D02ED01C50BE2
:021FFE00EBFFF7
:00000001FF
