:020000040000FA
:060000000A128A11FC2F18
:100CB6000030831203138C1A0130080083120313C9
:100CC6008C1E612E1A080800831603138601003055
:100CD60083120313A9000030A8002530A700803036
:100CE600A6000A128A1126270A128A110A128A11E6
:100CF6005B260A128A11003A0319892E0A128A11F2
:100D060061260A128A118312031386000230FD003F
:100D16000430FC00BA30FB00FB0B8F2EFC0B8F2E31
:100D2600FD0B8F2E0000792E83120313A101F31FF2
:100D3600A92EF009F109F209F309F00A0319F10ADB
:100D46000319F20A0319F30AA101A10AF71FBA2E21
:100D5600F409F509F609F709F40A0319F50A03195E
:100D6600F60A0319F70A0130F8007808A1060030E0
:100D7600A5000030A4000030A3000030A2007308D4
:100D860072047104700403190F2FA001A00AF31B4B
:100D9600DA2E0130F8000310F00DF10DF20DF30D0F
:100DA600F80BCE2E0130F8007808A007CA2E0130C5
:100DB600F8000310A20DA30DA40DA50DF80BDC2E53
:100DC60073087702031DF12E72087602031DF12EB9
:100DD60071087502031DF12E70087402031C022FA0
:100DE6007008F4027108031C710FF5027208031CE7
:100DF600720FF6027308031C730FF70222140130F8
:100E06000310F30CF20CF10CF00CFF3E031D032F44
:100E16000130A002031DDA2E210803191D2FA20995
:100E2600A309A409A509A20A0319A30A0319A40A76
:100E36000319A50A2508F3002408F2002308F10087
:100E46002208F0000800831203132608AA002708C8
:100E5600AB002808AC002908AD0006300310AA0D27
:100E6600AB0DAC0DAD0DFF3E031D312F2D08F3006C
:100E76002C08F2002B08F1002A08F0002608AE0024
:100E86002708AF002808B0002908B1000630031073
:100E9600AE0DAF0DB00DB10DFF3E031D4A2F003054
:100EA600B2001230B3007A30B4000030B5002E081C
:100EB600B2022F08031C2F0F612F622FB3023008D6
:100EC600031C300F672F682FB4023108031C310F43
:100ED6006D2F6E2FB5023508F7003408F60033087B
:100EE600F5003208F4000A128A1197260A128A11AE
:100EF6007108FA007008F90001307A02003003190F
:100F06007902031CE22F831203132608AA0027087E
:100F1600AB002808AC002908AD0004300310AA0D68
:100F2600AB0DAC0DAD0DFF3E031D912F2D08F3004B
:100F36002C08F2002B08F1002A08F0002608AE0063
:100F46002708AF002808B0002908B10004300310B4
:100F5600AE0DAF0DB00DB10DFF3E031DAA2F003033
:100F6600B2001230B3007A30B4000030B5002E085B
:100F7600B2022F08031C2F0FC12FC22FB302300855
:100F8600031C300FC72FC82FB4023108031C310FC2
:100F9600CD2FCE2FB5023508F7003408F6003308FA
:100FA600F5003208F4000A128A1197260A128A11ED
:100FB6007108FA007008F90083160313181501303A
:100FC6007A0200300319790203180800790883169B
:100FD6000313990018128312031398178316031329
:100FE6008717071783120313181683160313981609
:0A0FF600080083010A128A11672E19
:02400E007A3FF7
:00000001FF
